{
  "contractName": "DyDxSoloMargin",
  "abi": [
    {
      "anonymous": false,
      "inputs": [
        {
          "indexed": false,
          "internalType": "string",
          "name": "message",
          "type": "string"
        },
        {
          "indexed": false,
          "internalType": "uint256",
          "name": "val",
          "type": "uint256"
        }
      ],
      "name": "Log",
      "type": "event"
    },
    {
      "inputs": [
        {
          "internalType": "address",
          "name": "_token",
          "type": "address"
        },
        {
          "internalType": "uint256",
          "name": "_amount",
          "type": "uint256"
        }
      ],
      "name": "initiateFlashLoan",
      "outputs": [],
      "stateMutability": "nonpayable",
      "type": "function"
    },
    {
      "inputs": [
        {
          "internalType": "address",
          "name": "sender",
          "type": "address"
        },
        {
          "components": [
            {
              "internalType": "address",
              "name": "owner",
              "type": "address"
            },
            {
              "internalType": "uint256",
              "name": "number",
              "type": "uint256"
            }
          ],
          "internalType": "struct Account.Info",
          "name": "account",
          "type": "tuple"
        },
        {
          "internalType": "bytes",
          "name": "data",
          "type": "bytes"
        }
      ],
      "name": "callFunction",
      "outputs": [],
      "stateMutability": "nonpayable",
      "type": "function"
    }
  ],
  "bytecode": "0x608060405234801561001057600080fd5b506118c4806100206000396000f3fe608060405234801561001057600080fd5b50600436106100365760003560e01c80635e2c1b3a1461003b5780638b41871314610057575b600080fd5b61005560048036038101906100509190610ba5565b610073565b005b610071600480360381019061006c9190610d80565b610360565b005b6000731e0447b19bb6ecfdae1e4ae1694b0c3659614e4e905060006100ac731e0447b19bb6ecfdae1e4ae1694b0c3659614e4e856105ac565b905060006100b984610745565b90508473ffffffffffffffffffffffffffffffffffffffff1663095ea7b3731e0447b19bb6ecfdae1e4ae1694b0c3659614e4e836040518363ffffffff1660e01b815260040161010a929190610e0d565b6020604051808303816000875af1158015610129573d6000803e3d6000fd5b505050506040513d601f19601f8201168201806040525081019061014d9190610e6e565b506000600367ffffffffffffffff81111561016b5761016a610bfb565b5b6040519080825280602002602001820160405280156101a457816020015b610191610a0c565b8152602001906001900390816101895790505b5090506101b18386610762565b816000815181106101c5576101c4610e9b565b5b602002602001018190525061022260405180604001604052808873ffffffffffffffffffffffffffffffffffffffff1681526020018481525060405160200161020e9190610f17565b604051602081830303815290604052610830565b8160018151811061023657610235610e9b565b5b602002602001018190525061024b83836108ef565b8160028151811061025f5761025e610e9b565b5b60200260200101819052506000600167ffffffffffffffff81111561028757610286610bfb565b5b6040519080825280602002602001820160405280156102c057816020015b6102ad610a7f565b8152602001906001900390816102a55790505b5090506102cb6109bd565b816000815181106102df576102de610e9b565b5b60200260200101819052508473ffffffffffffffffffffffffffffffffffffffff1663a67a6a4582846040518363ffffffff1660e01b8152600401610325929190611378565b600060405180830381600087803b15801561033f57600080fd5b505af1158015610353573d6000803e3d6000fd5b5050505050505050505050565b731e0447b19bb6ecfdae1e4ae1694b0c3659614e4e73ffffffffffffffffffffffffffffffffffffffff163373ffffffffffffffffffffffffffffffffffffffff16146103e2576040517f08c379a00000000000000000000000000000000000000000000000000000000081526004016103d99061140c565b60405180910390fd5b3073ffffffffffffffffffffffffffffffffffffffff168373ffffffffffffffffffffffffffffffffffffffff1614610450576040517f08c379a000000000000000000000000000000000000000000000000000000000815260040161044790611478565b60405180910390fd5b6000818060200190518101906104669190611512565b90506000816020015190506000826000015173ffffffffffffffffffffffffffffffffffffffff166370a08231306040518263ffffffff1660e01b81526004016104b0919061153f565b602060405180830381865afa1580156104cd573d6000803e3d6000fd5b505050506040513d601f19601f820116820180604052508101906104f1919061155a565b905081811015610536576040517f08c379a000000000000000000000000000000000000000000000000000000000815260040161052d906115d3565b60405180910390fd5b7fdd970dd9b5bfe707922155b058a407655cb18288b807e2216442bca8ad83d6b581604051610565919061163f565b60405180910390a17fdd970dd9b5bfe707922155b058a407655cb18288b807e2216442bca8ad83d6b58260405161059c91906116b9565b60405180910390a1505050505050565b60008083905060008173ffffffffffffffffffffffffffffffffffffffff1663295c39a56040518163ffffffff1660e01b8152600401602060405180830381865afa1580156105ff573d6000803e3d6000fd5b505050506040513d601f19601f82011682018060405250810190610623919061155a565b9050600080600090505b82811015610703578373ffffffffffffffffffffffffffffffffffffffff1663062bd3e9826040518263ffffffff1660e01b815260040161066e91906116e7565b602060405180830381865afa15801561068b573d6000803e3d6000fd5b505050506040513d601f19601f820116820180604052508101906106af9190611702565b91508573ffffffffffffffffffffffffffffffffffffffff168273ffffffffffffffffffffffffffffffffffffffff16036106f0578094505050505061073f565b80806106fb9061175e565b91505061062d565b506040517f08c379a000000000000000000000000000000000000000000000000000000000815260040161073690611818565b60405180910390fd5b92915050565b600061075b6002836109f690919063ffffffff16565b9050919050565b61076a610a0c565b6040518061010001604052806001600881111561078a5761078961103c565b5b8152602001600081526020016040518060800160405280600015158152602001600060018111156107be576107bd61103c565b5b8152602001600060018111156107d7576107d661103c565b5b8152602001858152508152602001848152602001600081526020013073ffffffffffffffffffffffffffffffffffffffff1681526020016000815260200160405180602001604052806000815250815250905092915050565b610838610a0c565b6040518061010001604052806008808111156108575761085661103c565b5b81526020016000815260200160405180608001604052806000151581526020016000600181111561088b5761088a61103c565b5b8152602001600060018111156108a4576108a361103c565b5b81526020016000815250815260200160008152602001600081526020013073ffffffffffffffffffffffffffffffffffffffff16815260200160008152602001838152509050919050565b6108f7610a0c565b604051806101000160405280600060088111156109175761091661103c565b5b81526020016000815260200160405180608001604052806001151581526020016000600181111561094b5761094a61103c565b5b8152602001600060018111156109645761096361103c565b5b8152602001858152508152602001848152602001600081526020013073ffffffffffffffffffffffffffffffffffffffff1681526020016000815260200160405180602001604052806000815250815250905092915050565b6109c5610a7f565b60405180604001604052803073ffffffffffffffffffffffffffffffffffffffff1681526020016001815250905090565b60008183610a049190611838565b905092915050565b60405180610100016040528060006008811115610a2c57610a2b61103c565b5b815260200160008152602001610a40610aaf565b81526020016000815260200160008152602001600073ffffffffffffffffffffffffffffffffffffffff16815260200160008152602001606081525090565b6040518060400160405280600073ffffffffffffffffffffffffffffffffffffffff168152602001600081525090565b604051806080016040528060001515815260200160006001811115610ad757610ad661103c565b5b815260200160006001811115610af057610aef61103c565b5b8152602001600081525090565b6000604051905090565b600080fd5b600080fd5b600073ffffffffffffffffffffffffffffffffffffffff82169050919050565b6000610b3c82610b11565b9050919050565b610b4c81610b31565b8114610b5757600080fd5b50565b600081359050610b6981610b43565b92915050565b6000819050919050565b610b8281610b6f565b8114610b8d57600080fd5b50565b600081359050610b9f81610b79565b92915050565b60008060408385031215610bbc57610bbb610b07565b5b6000610bca85828601610b5a565b9250506020610bdb85828601610b90565b9150509250929050565b600080fd5b6000601f19601f8301169050919050565b7f4e487b7100000000000000000000000000000000000000000000000000000000600052604160045260246000fd5b610c3382610bea565b810181811067ffffffffffffffff82111715610c5257610c51610bfb565b5b80604052505050565b6000610c65610afd565b9050610c718282610c2a565b919050565b600060408284031215610c8c57610c8b610be5565b5b610c966040610c5b565b90506000610ca684828501610b5a565b6000830152506020610cba84828501610b90565b60208301525092915050565b600080fd5b600080fd5b600067ffffffffffffffff821115610ceb57610cea610bfb565b5b610cf482610bea565b9050602081019050919050565b82818337600083830152505050565b6000610d23610d1e84610cd0565b610c5b565b905082815260208101848484011115610d3f57610d3e610ccb565b5b610d4a848285610d01565b509392505050565b600082601f830112610d6757610d66610cc6565b5b8135610d77848260208601610d10565b91505092915050565b600080600060808486031215610d9957610d98610b07565b5b6000610da786828701610b5a565b9350506020610db886828701610c76565b925050606084013567ffffffffffffffff811115610dd957610dd8610b0c565b5b610de586828701610d52565b9150509250925092565b610df881610b31565b82525050565b610e0781610b6f565b82525050565b6000604082019050610e226000830185610def565b610e2f6020830184610dfe565b9392505050565b60008115159050919050565b610e4b81610e36565b8114610e5657600080fd5b50565b600081519050610e6881610e42565b92915050565b600060208284031215610e8457610e83610b07565b5b6000610e9284828501610e59565b91505092915050565b7f4e487b7100000000000000000000000000000000000000000000000000000000600052603260045260246000fd5b610ed381610b31565b82525050565b610ee281610b6f565b82525050565b604082016000820151610efe6000850182610eca565b506020820151610f116020850182610ed9565b50505050565b6000604082019050610f2c6000830184610ee8565b92915050565b600081519050919050565b600082825260208201905092915050565b6000819050602082019050919050565b604082016000820151610f746000850182610eca565b506020820151610f876020850182610ed9565b50505050565b6000610f998383610f5e565b60408301905092915050565b6000602082019050919050565b6000610fbd82610f32565b610fc78185610f3d565b9350610fd283610f4e565b8060005b83811015611003578151610fea8882610f8d565b9750610ff583610fa5565b925050600181019050610fd6565b5085935050505092915050565b600081519050919050565b600082825260208201905092915050565b6000819050602082019050919050565b7f4e487b7100000000000000000000000000000000000000000000000000000000600052602160045260246000fd5b6009811061107c5761107b61103c565b5b50565b600081905061108d8261106b565b919050565b600061109d8261107f565b9050919050565b6110ad81611092565b82525050565b6110bc81610e36565b82525050565b600281106110d3576110d261103c565b5b50565b60008190506110e4826110c2565b919050565b60006110f4826110d6565b9050919050565b611104816110e9565b82525050565b6002811061111b5761111a61103c565b5b50565b600081905061112c8261110a565b919050565b600061113c8261111e565b9050919050565b61114c81611131565b82525050565b60808201600082015161116860008501826110b3565b50602082015161117b60208501826110fb565b50604082015161118e6040850182611143565b5060608201516111a16060850182610ed9565b50505050565b600081519050919050565b600082825260208201905092915050565b60005b838110156111e15780820151818401526020810190506111c6565b838111156111f0576000848401525b50505050565b6000611201826111a7565b61120b81856111b2565b935061121b8185602086016111c3565b61122481610bea565b840191505092915050565b60006101608301600083015161124860008601826110a4565b50602083015161125b6020860182610ed9565b50604083015161126e6040860182611152565b50606083015161128160c0860182610ed9565b50608083015161129460e0860182610ed9565b5060a08301516112a8610100860182610eca565b5060c08301516112bc610120860182610ed9565b5060e08301518482036101408601526112d582826111f6565b9150508091505092915050565b60006112ee838361122f565b905092915050565b6000602082019050919050565b600061130e82611010565b611318818561101b565b93508360208202850161132a8561102c565b8060005b85811015611366578484038952815161134785826112e2565b9450611352836112f6565b925060208a0199505060018101905061132e565b50829750879550505050505092915050565b600060408201905081810360008301526113928185610fb2565b905081810360208301526113a68184611303565b90509392505050565b600082825260208201905092915050565b7f21736f6c6f000000000000000000000000000000000000000000000000000000600082015250565b60006113f66005836113af565b9150611401826113c0565b602082019050919050565b60006020820190508181036000830152611425816113e9565b9050919050565b7f217468697320636f6e7472616374000000000000000000000000000000000000600082015250565b6000611462600e836113af565b915061146d8261142c565b602082019050919050565b6000602082019050818103600083015261149181611455565b9050919050565b6000815190506114a781610b43565b92915050565b6000815190506114bc81610b79565b92915050565b6000604082840312156114d8576114d7610be5565b5b6114e26040610c5b565b905060006114f284828501611498565b6000830152506020611506848285016114ad565b60208301525092915050565b60006040828403121561152857611527610b07565b5b6000611536848285016114c2565b91505092915050565b60006020820190506115546000830184610def565b92915050565b6000602082840312156115705761156f610b07565b5b600061157e848285016114ad565b91505092915050565b7f62616c203c207265706179000000000000000000000000000000000000000000600082015250565b60006115bd600b836113af565b91506115c882611587565b602082019050919050565b600060208201905081810360008301526115ec816115b0565b9050919050565b7f636f6e74726163742062616c616e63653a200000000000000000000000000000600082015250565b60006116296012836113af565b9150611634826115f3565b602082019050919050565b600060408201905081810360008301526116588161161c565b90506116676020830184610dfe565b92915050565b7f726570617920616d6f756e743a20000000000000000000000000000000000000600082015250565b60006116a3600e836113af565b91506116ae8261166d565b602082019050919050565b600060408201905081810360008301526116d281611696565b90506116e16020830184610dfe565b92915050565b60006020820190506116fc6000830184610dfe565b92915050565b60006020828403121561171857611717610b07565b5b600061172684828501611498565b91505092915050565b7f4e487b7100000000000000000000000000000000000000000000000000000000600052601160045260246000fd5b600061176982610b6f565b91507fffffffffffffffffffffffffffffffffffffffffffffffffffffffffffffffff820361179b5761179a61172f565b5b600182019050919050565b7f4e6f206d61726b6574496420666f756e6420666f722070726f7669646564207460008201527f6f6b656e00000000000000000000000000000000000000000000000000000000602082015250565b60006118026024836113af565b915061180d826117a6565b604082019050919050565b60006020820190508181036000830152611831816117f5565b9050919050565b600061184382610b6f565b915061184e83610b6f565b9250827fffffffffffffffffffffffffffffffffffffffffffffffffffffffffffffffff038211156118835761188261172f565b5b82820190509291505056fea2646970667358221220b8f9644d11b961ad816c5061953460075427b81b3bd102b0dba85d9fd793478064736f6c634300080d0033",
  "immutableReferences": {},
  "source": "// SPDX-License-Identifier: MIT\r\npragma solidity >=0.4.22 <0.9.0;\r\n\r\npragma experimental ABIEncoderV2;\r\n\r\nimport \"./interfaces/FlashloanBase.sol\";\r\nimport \"./interfaces/ICallee.sol\";\r\n\r\ncontract DyDxSoloMargin is ICallee, FlashloanBase {\r\n    address private constant SOLO = 0x1E0447b19BB6EcFdAe1e4AE1694b0C3659614e4e;\r\n\r\n    event Log(string message, uint256 val);\r\n\r\n    struct MyCustomData {\r\n        address token;\r\n        uint256 repayAmount;\r\n    }\r\n\r\n    function initiateFlashLoan(address _token, uint256 _amount) external {\r\n        ISoloMargin solo = ISoloMargin(SOLO);\r\n\r\n        // Get marketId from token address ( for USDC marketId is 2)\r\n        uint256 marketId = _getMarketIdFromTokenAddress(SOLO, _token);\r\n\r\n        // repay amount (_amount + fee(2 wei))\r\n        uint256 repayAmount = _getRepaymentAmountInternal(_amount);\r\n        IERC20(_token).approve(SOLO, repayAmount);\r\n\r\n        /*\r\n        flashLoan on DyDx : \r\n        1. Borrow \r\n        2. Call callFunction()\r\n        3. Deposit back\r\n        */\r\n        Actions.ActionArgs[] memory operations = new Actions.ActionArgs[](3);\r\n\r\n        operations[0] = _getWithdrawAction(marketId, _amount);\r\n        operations[1] = _getCallAction(\r\n            abi.encode(MyCustomData({token: _token, repayAmount: repayAmount}))\r\n        );\r\n        operations[2] = _getDepositAction(marketId, repayAmount);\r\n\r\n        Account.Info[] memory accountInfos = new Account.Info[](1);\r\n        accountInfos[0] = _getAccountInfo();\r\n\r\n        solo.operate(accountInfos, operations);\r\n    }\r\n\r\n    function callFunction(\r\n        address sender,\r\n        Account.Info memory account,\r\n        bytes memory data\r\n    ) public override {\r\n        require(msg.sender == SOLO, \"!solo\");\r\n        require(sender == address(this), \"!this contract\");\r\n\r\n        MyCustomData memory mcd = abi.decode(data, (MyCustomData));\r\n        uint256 repayAmount = mcd.repayAmount;\r\n\r\n        uint256 bal = IERC20(mcd.token).balanceOf(address(this));\r\n        require(bal >= repayAmount, \"bal < repay\");\r\n\r\n        emit Log(\"contract balance: \", bal);\r\n        emit Log(\"repay amount: \", repayAmount);\r\n    }\r\n}\r\n",
  "sourcePath": "C:\\Users\\HP\\Documents\\DApp\\DyDx\\flashLoan\\contracts\\DyDxSoloMargin.sol",
  "compiler": {
    "name": "solc",
    "version": "0.8.13+commit.abaa5c0e.Emscripten.clang"
  },
  "schemaVersion": "3.4.6",
  "updatedAt": "2022-10-10T08:59:32.195Z",
  "devdoc": {
    "kind": "dev",
    "methods": {},
    "version": 1
  },
  "userdoc": {
    "kind": "user",
    "methods": {},
    "version": 1
  }
}